:020000040800F2
:10000000A007002089010008A71A0008E5150008CC
:10001000A51A00088F020008E51D00080000000076
:10002000000000000000000000000000AB1A000803
:100030009102000800000000A91A0008AD1A00088B
:10004000A3010008A3010008A3010008A301000800
:10005000A3010008A3010008A3010008A3010008F0
:10006000A3010008A3010008A3010008A3010008E0
:10007000A3010008A3010008A3010008A3010008D0
:10008000A3010008A3010008A3010008A3010008C0
:10009000A3010008A3010008A3010008A3010008B0
:1000A000A3010008A3010008A3010008A3010008A0
:1000B000A3010008111B0008A3010008A301000808
:1000C000A3010008A3010008A3010008A301000880
:1000D000A3010008CD1D0008D91D0008A3010008D8
:1000E000A3010008A3010008A301000800F002F822
:1000F00000F03AF80AA090E8000C82448344AAF188
:100100000107DA4501D100F02FF8AFF2090EBAE885
:100110000F0013F0010F18BFFB1A43F0010318473B
:10012000D4270000F4270000103A24BF78C878C113
:10013000FAD8520724BF30C830C144BF04680C60ED
:10014000704700000023002400250026103A28BF35
:1001500078C1FBD8520728BF30C148BF0B60704739
:100160001FB51FBD10B510BD00F058F81146FFF7C0
:10017000F7FF01F049FE00F076F803B4FFF7F2FF55
:1001800003BC00F07DF8000009488047094800479B
:10019000FEE7FEE7FEE7FEE7FEE7FEE7FEE7FEE737
:1001A000FEE7FEE704480549054A064B7047000094
:1001B0000F1B0008ED000008A0010020A007002090
:1001C000A0030020A00300204FF0000200B513465A
:1001D00094469646203922BFA0E80C50A0E80C5067
:1001E000B1F12001BFF4F7AF090728BFA0E80C5018
:1001F00048BF0CC05DF804EB890028BF40F8042B11
:1002000008BF704748BF20F8022B11F0804F18BF7D
:1002100000F8012B7047704770477047754600F033
:100220002BF8AE4605006946534620F00700854688
:1002300018B020B5FFF7B6FFBDE820404FF000062C
:100240004FF000074FF000084FF0000B21F00701BE
:10025000AC46ACE8C009ACE8C009ACE8C009ACE801
:10026000C0098D46704710B50446AFF300802046A4
:10027000BDE81040FFF781BF004870473C010020F7
:1002800001491820ABBEFEE7260002007047FEE7DA
:10029000704772B6FEE710B590F8211000220229CF
:1002A00005D00421816380F82020012010BD016861
:1002B0000B6823F00E030B6001680B6823F0010349
:1002C0000B6090F84030C46B012101FA03F36360C6
:1002D00080F8211080F82020104610BD10B590F84D
:1002E00021100024022903D00421816301243DE070
:1002F00001680A6822F00E020A6001680A6822F0AA
:1003000001020A601A4A0168914201D1012121E0EB
:10031000174A1432914201D110211BE0144A2832AD
:10032000914201D1891515E0114A3C32914201D127
:1003300089140FE00E4A5032914202D14FF48031BD
:1003400008E00B4A6432914202D14FF4801101E07F
:100350004FF08071064A083A5160012180F821105F
:10036000002180F82010416B01B18847204610BD64
:100370000800024070B5044600F00CF90546601C08
:1003800002D004480078044400F004F9401BA04265
:10039000FAD370BD000000202DE9F84FDFF8B891C6
:1003A0000024A9F1040B23460F2709F1040AABF13D
:1003B000040EC9E00125A5402A40AA427DD1674E1E
:1003C000D1F804C0ACEB0608B44532D014DCBCF163
:1003D000030F3AD009DCBCF1000F2AD0BCF1010FA9
:1003E0001CD0BCF1020F31D11DE0BCF1110F17D0B0
:1003F000BCF1120F2AD119E0B8F5881F19D006DC1C
:10040000B8F5803F15D0B8F5801F1FD111E0B8F5C1
:10041000001F0ED0B8F5041F18D10AE0CB6815E014
:10042000CB681B1D12E0CB6808330FE0CB680C33A0
:100430000CE08B682BB1012B4FF0080303D0456112
:1004400004E0042302E0056100E00023FF2A01D854
:10045000064601E000F104064FEA840501D9A5F142
:100460002005D6F8008007FA05FC28EA0C0803FAF4
:1004700005F548EA0508C6F800804D68ED0062D52C
:10048000374DAE6946F00106AE61AD6924F0030652
:1004900005F001050095334D06EB050CDCF808501E
:1004A000A607360F07FA06F825EA0805DFF8B88030
:1004B000404503D14FF0000817E044E0DFF8AC807E
:1004C000404502D14FF001080FE0DFF8A48040451D
:1004D00002D14FF0020808E0DFF89880404502D1D1
:1004E0004FF0030801E04FF0040808FA06F848EA64
:1004F0000508CCF808804D68D9F80060ED024D463B
:1005000001D5164300E096432E604D68DAF800608E
:10051000AD02554601D5164300E096432E604D6866
:10052000DBF80060AD035D4601D5164300E096435D
:100530002E604D68DEF80060ED03754601D5164368
:1005400000E096432E60641C0D682A46E5407FF467
:1005500031AFBDE8F88F0000080401400000111021
:10056000001002400000014000080140000C014062
:100570000010014000140140C26821EA02030A4051
:1005800043EA0241016170470AB101617047090401
:10059000FBE7000001488068704700000000002071
:1005A00070B5040025D094F83D00002520B984F8EA
:1005B0003C50204600F050F9242084F83D0020688B
:1005C000016821F0010101602068016841F40041E7
:1005D00001602068016821F40041016000F098FA90
:1005E0004D4A6168914201D84C4900E04C4988422B
:1005F00001D2012070BD4B492368B0FBF1F15E6868
:1006000026F03F060E435E606368934206D94FF4BE
:10061000967359434FF47A73B1FBF3F12368491C85
:100620001E6A26F03F06314319626168914210D874
:100630004900401EB0FBF1F2521CC2F30B02042A27
:1006400001D2042022E0B0FBF1F0401CC0F30B000B
:100650001CE0A268F2B301EBC10303EB0116431ED9
:10066000B3FBF6F35B1C43F480431B0549D092B304
:1006700001EBC10202EB0111401EB0FBF1F0401C86
:10068000C0F30B0040F4804040F400402168CA6988
:100690004CF6FF739A431043C861D4E90710014335
:1006A0002068026822F0C00211430160D4E903010E
:1006B00001432068826848F2FF339A431143816006
:1006C000D4E9050108432168CA6822F0FF021043FB
:1006D000C86001E00EE016E02068016841F0010109
:1006E00001602564202084F83D00256384F83E5095
:1006F000002070BD01EB4106431EB3FBF6F35B1C0B
:10070000B3E70120C2E701EB4101401EB0FBF1F06D
:10071000401CC0F30B00B7E7A086010080841E00D8
:1007200000093D0040420F002DE9FF4F83B09A467B
:10073000DDE9119793460446DDF84080FFF72AFF74
:10074000054694F83D0020287FD119230122404915
:100750002046009500F0DEFF002876D194F83C009A
:10076000012872D0012084F83C0020680168C90784
:1007700003D1016841F0010101602068016821F4A2
:1007800000610160212084F83D00402084F83E0093
:1007900000262664C4F82480A4F82A90608D208561
:1007A0002C48E062CDE9007553465A46204604992C
:1007B00000F030FF70B930E02A463946204601F09B
:1007C0004FF858B1206C042804D12068016841F426
:1007D00000710160012007B0BDE8F08F606A2168F8
:1007E00000780861606A401C6062218D491E89B2F0
:1007F0002185628D521E628522685369DB435B0747
:100800000BD469B100781061606A401C6062208D71
:10081000401E2085608D401E6085208D0028CBD134
:100820002A463946204600F049FF0028CAD154F82C
:100830003D0B016841F400710160202004F81E099D
:10084000E67766770020C6E7FFE70220C3E70000EF
:10085000020010000000FFFF10B586B000210091DB
:1008600001910291039100680F4988421AD10F4CFF
:10087000A06940F00800A061A069694600F0080086
:100880000490C0200090122001900320039008489B
:10089000FFF782FDE06940F40010E061E06900F4D8
:1008A0000010049006B010BD00540040001002403B
:1008B000000C014002488168027811448160704751
:1008C00000000020074810B5016841F010010160E8
:1008D000032000F075F80F2000F006F800F024F86F
:1008E000002010BD0020024070B50D4D04464FF4AD
:1008F0007A712878B1FBF0F00A490968B1FBF0F091
:1009000000F0DCFA48B9102C07D200222146501E14
:1009100000F036F800206C6070BD012070BD000052
:10092000000000200C0000200C4808B5816941F04F
:1009300001018161816901F001010091C16941F00A
:100940008051C161C06900F0805000900448416846
:1009500021F0E06141F00071416008BD00100240EB
:1009600000000140002809DB00F01F020121914036
:100970004009800000F1E020C0F80011704700003D
:10098000F0B40E4B1B680C46C3F30223C3F10705FA
:10099000042D00D90425191D072901D2002300E0E8
:1009A000DB1E012606FA05F1491E214099409E40B2
:1009B000761E16403143F0BC01F015BA0CED00E094
:1009C000064900F0070208684FF6FF03184040EAA6
:1009D0000220034A10430860704700000CED00E05D
:1009E0000000FA052DE9F0470F46050061D0434E9F
:1009F000306800F00700B84209D2306820F00700E4
:100A000038433060306800F00700B84251D12868A0
:100A10003B4C810712D5400703D5606840F4E06085
:100A200060602878000703D5606840F4605060601B
:100A30006068A96820F0F000084360602878C0076B
:100A400028D06868012810D02168022810D08907B2
:100A500000292EDA616821F0030101436160FFF78C
:100A600099FD804641F288390DE021688903EFE75E
:100A70008901EDE7FFF78EFDA0EB0801494502D99A
:100A80000320BDE8F0876068696800F00C00B0EBF7
:100A9000810FEFD1306800F00700B8420BD9306801
:100AA00020F0070038433060306800F00700B8429B
:100AB00001D00120E5E72878400705D56068E9689E
:100AC00020F4E060084360602878000706D560687D
:100AD000296920F4605040EAC100606000F038F8F5
:100AE0006168084AC1F30311515CC84006490860B7
:100AF00006480068FFF7F8FE0020C2E70020024029
:100B000000100240C22000080C0000200400002059
:100B10000448054900684968044AC1F30221515C50
:100B2000C84070470C00002000100240D22000088E
:100B30000448054900684968044AC1F3C221515C70
:100B4000C84070470C00002000100240D22000086E
:100B50000E4A51680E4801F00C03042B11D0082BEB
:100B60000FD10C48C1F38343C903C05C0AD5516857
:100B7000084AC1F34041921E515C054A5043B0FB04
:100B8000F1F07047044948437047000000100240EC
:100B900000127A00B220000800093D002DE9F84F4C
:100BA000040070D02078C04DC00749D06868C0F3F9
:100BB0008100012807D06868C0F38100022809D1AC
:100BC0006868C00306D52868800339D560680028A6
:100BD000E7D035E06068B0F5803F0BD010B1B0F5DC
:100BE000A02F11D0286820F480302860286820F4D5
:100BF000802002E0286840F480302860606890B16E
:100C0000FFF7C8FC06460AE0286840F48020286008
:100C1000F0E700BFFFF7BEFC801B642873D828688C
:100C20008003F7D50CE0FFF7B5FC064605E000BFF2
:100C3000FFF7B0FC801B6428F0D828688003F7D445
:100C400020789A4E80074FF001094FF0000839D5FF
:100C5000686810F00C0F07D06868C0F381000228A4
:100C600009D16868C00306D42868800714D52069B4
:100C7000012808D110E02069B0B1C6F80090FFF754
:100C800089FC074605E00AE1FFF784FCC01B022847
:100C9000C4D828688007F7D52868616920F0F80073
:100CA00040EAC10028600DE0C6F80080FFF772FC42
:100CB000074604E0FFF76EFCC01B022823D8286813
:100CC0008007F7D4207800072CD57948A169D9B1DD
:100CD000C0F80090FFF75EFC074604E0FFF75AFCFF
:100CE000C01B02280FD8686A8007F7D571484FF4F7
:100CF000FA510068B0FBF1F0009000BF0098411E6F
:100D00000091FAD20EE080E0C0F80080FFF742FCCC
:100D1000074604E0FFF73EFCC01B022875D8686A4E
:100D20008007F7D42078400760D5E8690027C00025
:100D300008D4E86940F08050E861E869012700F0D4
:100D4000805000905C480168C90513D4016883464F
:100D500041F480710160FFF71DFC824606E000BF90
:100D6000FFF718FCA0EB0A0064284ED8DBF800005F
:100D7000C005F5D5E06801280AD008B1052813D0D0
:100D8000286A20F001002862286A20F0040002E0AE
:100D9000286A40F001002862E06841F2883B98B17F
:100DA000FFF7F8FB82460BE0286A40F00400286257
:100DB000EEE700BFFFF7EEFBA0EB0A0159455AD85A
:100DC000286A8007F6D50CE0FFF7E4FB824605E0D1
:100DD000FFF7E0FBA0EB0A0159454CD8286A8007D1
:100DE000F6D41FB1E86920F08050E861E06988B36B
:100DF0006968C1F38101022944D00228C6F86080E5
:100E000004D0FFF7C7FB044638E034E0FFF7C2FB2D
:100E1000074604E0FFF7BEFBC01B02282BD828685A
:100E20008001F7D4206AB0F5803F05D16868A168D9
:100E300020F4003008436860D4E908010843696879
:100E400021F4741108436860C6F86090FFF7A2FBB4
:100E5000044606E025E000BFFFF79CFB001B0228CC
:100E600009D828688001F7D51BE000BFFFF792FB87
:100E7000001B022802D90320BDE8F88F28688001F2
:100E8000F4D40EE00128F7D06868226A00F48031BB
:100E9000914204D1616A00F47010884201D00120AF
:100EA000EAE70020E8E700000010024000004242AC
:100EB000800442420C0000200070004010B5401E2B
:100EC000B0F1807F01D3012010BD4FF0E0246061BC
:100ED0000F21601700F087FF0020A061072020612C
:100EE000002010BD7047704770B590F83C20012A73
:100EF00026D0012480F83C40022280F83D2003687F
:100F00005A689D6822F070060A6832435A600D4B99
:100F100002689A4208D0B2F1804F05D00A4B9A423B
:100F200002D00A4B9A4204D1496825F08003194344
:100F3000916080F83D40002180F83C10084670BD6B
:100F4000022070BD002C0140000400400008004059
:100F500010B5040003D094F83D0010B107E0012063
:100F600010BD002084F83C00204600F01FF802204D
:100F700084F83D00211D206800F0D0FD012084F898
:100F8000460084F83E0084F83F0084F8400084F86E
:100F9000410084F8420084F8430084F8440084F857
:100FA000450084F83D00002010BD000008B5006831
:100FB0000B49884212D10B48C16941F00201C1615D
:100FC000C069002200F00200009011461D20FFF7CA
:100FD000D7FCBDE808401D20FFF7C4BC08BD0000D9
:100FE000000400400010024070B5044690F83C0038
:100FF0000025012817D0012684F83C60022084F8DF
:101000003D002068826822F0770222F47F428260ED
:101010000868502838D00DDC20284FD005DC90B36C
:10102000102811D14AE0022070BD302846D0402857
:101030000AD13BE060282FD070280DD0B0F5805F3A
:1010400003D0B0F5005F12D0012584F83D60002088
:1010500084F83C00284670BDCB68D1E901212068A6
:1010600000F092FD2068816841F0770109E0CB68CB
:10107000D1E90121206800F087FD2068816841F4F2
:1010800080418160E1E719E0CA684968206800F0A2
:101090008DFD5021206806E0CA684968206800F08C
:1010A00096FD6021206800F079FDCEE7CA684968A6
:1010B000206800F07BFD40212068F4E722680146AB
:1010C0001046F0E7704770B50446006801694FF0BC
:1010D0000005C943890715D4C168C943890711D4DC
:1010E000E91E016101202077206880698007204681
:1010F00002D0FFF7E7FF04E000F098F8204600F088
:1011000096F8257720680169C943490717D4C16853
:10111000C943490713D46FF004010161022020770D
:101120002068806910F4407F204602D0FFF7CAFF94
:1011300004E000F07BF8204600F079F8257720687D
:101140000169C943090716D4C168C943090712D404
:101150006FF008010161042020772068C0698007D2
:10116000204602D0FFF7AEFF04E000F05FF8204613
:1011700000F05DF8257720680169C943C90617D4D6
:10118000C168C943C90613D46FF01001016108207A
:1011900020772068C06910F4407F204602D0FFF716
:1011A00091FF04E000F042F8204600F040F8257777
:1011B00020680169C943C90708D1C168C943C90783
:1011C00004D1891E0161204600F032F820680169CF
:1011D000C943090609D4C168C943090605D46FF09B
:1011E000800101612046FFF77DFE20680169C94347
:1011F000490609D4C168C943490605D46FF04001C6
:101200000161204600F015F820680169C94389068C
:101210000BD4C168C943890607D46FF0200101616E
:101220002046BDE87040FFF75EBE70BD7047704756
:101230007047704770477047F8B501680446086802
:10124000CA684B6910F00F0F4FF0000559D003F03A
:10125000010602F49077374365D0C10705D0D10568
:1012600003D5616C41F001016164410705D5D907DF
:1012700003D0616C41F002016164810705D5D90793
:1012800003D0616C41F004016164010707D502F0ED
:101290002001314303D0616C41F008016164616C4D
:1012A00000293AD0800604D5900602D5204600F0E9
:1012B000CFFC20684069616CC0F38010090700D43E
:1012C00060B3204600F09DFC20684069400621D5AF
:1012D0002068143050E8001F21F0400140E800125F
:1012E000002AF5D1E06BA8B16D494163E06BFEF7D0
:1012F000F5FF002811D0E06B416B01B0BDE8F04074
:10130000084783060FD593060DD52046BDE8F84063
:1013100000F09EBC2046FFF78EFFF8BD2046FFF789
:101320008AFF6564F8BD266B2023012E7CD1C6069A
:101330007AD5D60678D508684868009048694FF095
:101340000206400640D5E16B086840680004000CC6
:10135000E8D0A28D8242E5D9E085886920282DD089
:1013600020680C3050E8001F21F4807140E8001222
:10137000002AF5D12068143050E8001F21F0010147
:1013800040E80012002AF5D12068143050E8001F10
:1013900021F0400140E80012002AF5D184F84230E3
:1013A000256320680C3050E8001F21F0100140E850
:1013B0000012002AF5D1E06BFEF76DFF6663A08D89
:1013C000E18D401A81B22AE0A08DE18D401A81B2F0
:1013D000E08D0028A6D00029A4D022680C3252E863
:1013E000000F20F4907042E80007002FF5D120682C
:1013F000143050E8002F22F0010240E80027002FAF
:10140000F5D184F84230256320680C3050E8002F75
:1014100022F0100240E80023002BF5D1666320463D
:10142000FFF708FFF8BDFFE705062BD5150629D500
:1014300094F841002128F5D1A068B0F5805F01D172
:101440002069B0B1206A411C21622168007848609F
:10145000E08C401E0004000CE084E3D12068C168E9
:1014600021F08001C1602068C16841F04001C16085
:10147000D8E7206A0088C0F308004860206A801C12
:101480002062E5E74006CDD55006CBD5CA68204698
:1014900022F04002CA6084F8413000F0A2F8C1E7AF
:1014A000F31B000870B5040004D094F84100002537
:1014B00010B106E0012070BD84F84050204600F0D5
:1014C00023F8242084F841002068C16821F40051E9
:1014D000C160204600F01EFC2068016921F49041A3
:1014E00001612068416921F02A0141612068C168D9
:1014F00041F40051C1606564202084F8410084F803
:1015000042006563002070BD70B586B00024009471
:101510000194029403942E4E03682E490220032264
:101520002D4DB34226D18B6943F480438B618B6987
:1015300003F4804304938B6943F004038B6189694E
:10154000039201F0040104910102CDE90010694603
:101550002846FEF721FF2815CDE9000469462846F4
:101560000294FEF719FF002211462520FFF708FA22
:10157000252028E0194EB34227D1CB6943F400332C
:10158000CB61CB6903F4003304938B6943F004030C
:101590008B618969039201F0040104910421CDE972
:1015A000001069462846FEF7F7FE0820CDE9000442
:1015B000694628460294FEF7EFFE002211462620D7
:1015C000FFF7DEF92620FFF7CDF906B070BD000069
:1015D0000038014000100240000801400044004073
:1015E00070477047FEE701684A69D24352050FD43D
:1015F0006FF480624A61002140F8301F202242735C
:101600008173026942F00402026101730120704794
:10161000002070472DE9F843044600680D46DDE9D7
:10162000089701689846164641F4807101604B4660
:1016300000224FF001112046009700F06BF848B1EE
:1016400020680068C00502D54FF4007020640320B4
:10165000BDE8F883216805F0FE0008613B464A4674
:101660001549204600F09EF888B9206841698069D4
:1016700000903A464946204600F0F2F848B1206C06
:10168000042804D12068016841F400710160012040
:10169000DEE7F5B2B8F1010F09D02168300A086120
:1016A0003A464946204600F0DBF80028E7D120689A
:1016B00005610020CCE700000200010070B516466D
:1016C0000D4604461EE02046FFF78DFF08B10120BD
:1016D00070BD681C16D0FEF75DFF801BA84200D8C5
:1016E00085B920684069C04340070BD5002044F805
:1016F000300F20216173A073216941F02001216125
:101700002073E4E720684069C0434007DBD4002031
:1017100070BD00002DE9F047984617460D46044677
:10172000C1F30746DDF820902AE000BFB8F1FF3F83
:1017300026D0FEF72FFFA0EB0901414502D8B8F1F2
:10174000000F1DD12068012E16D0806925EA000007
:101750000004000C12D00020B84211D1002044F83F
:10176000300F20216173A073216941F020012161B4
:1017700020730120BDE8F0874069E7E70120EBE72F
:101780002068012E0AD0806925EA00000004000CC0
:1017900006D00020B842C9D00020EBE74069F3E74B
:1017A0000120F7E72DE9F047984616460D46044616
:1017B0004FF000094FF0200AC1F3074723E02068EB
:1017C0004069C043400515D42068016841F40071A8
:1017D000016021686FF480604861C4F8309084F83B
:1017E0003DA084F83E90216C41F00401216484F80E
:1017F0003C9021E0701C06D0FEF7CCFEA0EB080068
:10180000B04203D816B1012F1FD021E02068012F6C
:1018100015D0806925EA00000004000C18D000BF34
:1018200044F8309F84F80DA084F80E90216941F0AF
:101830002001216184F80C900120BDE8F087406907
:1018400025EA00000004000CEAD12068406901E0AC
:101850002068806925EA00000004000CAFD1ECE7A5
:1018600070B516460D4604461EE02046FFF7BBFE47
:1018700008B1012070BD681C16D0FEF78BFE801BDE
:10188000A84200D885B920684069C04300060BD53E
:10189000002044F8300F20216173A073216941F0CA
:1018A000200121612073E4E720684069C0430006FD
:1018B000DBD4002070BD00002DE9F04385B0002589
:1018C0002E480095019502950395816941F010011C
:1018D0008161816901F010010491816941F0200169
:1018E0008161816901F020010491816941F0040165
:1018F0008161816901F004010491816941F008016D
:1019000081618069DFF8788000F008004FF40054AE
:101910000490002221464046FEF736FEDFF8649030
:101920004FF46047002239464846FEF72DFE0094EA
:1019300001240226CDE90246694640460194FEF79D
:101940002BFDF020CDE90005DFF83C8069460294CC
:101950004046FEF721FDCDE90074CDE90246694617
:101960004846FEF719FD2002CDE9000569464046CC
:101970000295FEF711FD05B0BDE8F08300100240AE
:1019800000100140000C0140000801400D4810B556
:101990000B4901600C49416000214FF48042816095
:1019A000C0E9031241618161C1610162FEF7F8FD86
:1019B000002803D0BDE81040FEF76BBC10BD00004E
:1019C0000054004010000020801A060010B586B0B8
:1019D000002417480094019402940394049413493A
:1019E0000594016041F61F41C0E9011441F28731BD
:1019F000C0E903148461FFF7ABFA08B1FEF749FCB4
:101A00004FF48050009069460948FFF7EDFA08B19D
:101A1000FEF73FFC049404A905480594FFF764FA17
:101A2000002801D0FEF735FC06B010BD00040040D0
:101A3000640000200C4810B50A4901604FF4E13100
:101A40004160002181600C22C160C0E90412816103
:101A5000C161FFF727FD002803D0BDE81040FEF765
:101A600018BC10BD00380140AC0000200C4810B577
:101A70000A4901604FF4E1314160002181600C228C
:101A8000C160C0E904128161C161FFF70BFD00284C
:101A900003D0BDE81040FEF7FCBB10BD0044004081
:101AA000F4000020FEE7FEE770477047FEF702BF34
:101AB00030B58FB028216846FEF786FB14210AA8AE
:101AC000FEF782FB01210804CDE9001000240294F6
:101AD00002250491CDE907504FF4E01009906846C3
:101AE000FFF75CF808B172B6FEE70F20CDE90A05F2
:101AF0004FF48060CDE90C4002210AA80E94FEF755
:101B000071FF002801D072B6FEE70FB030BD7047FC
:101B10000148FFF7D8BA000064000020F0B5026861
:101B2000164B174C174D4FF08047984205D0B842DE
:101B300003D0A04201D0A84203D122F070064A6827
:101B40003243984205D0B84203D0A04201D0A84207
:101B500003D122F44074CA6822434C6922F0800207
:101B6000224302608A68C2620A688262984201D196
:101B70000969016301214161F0BD0000002C0140B1
:101B8000000400400008004010B5846842EA0322C7
:101B900024F47F440A432243826010BD826822F00D
:101BA00070020A4342F007018160704710B5036A72
:101BB000046A24F001040462846924F0F00444EA15
:101BC000021423F00A020A438461026210BD10B5B8
:101BD000036A046A24F010040462846923F0A003F9
:101BE00024F4704444EA023243EA01118261016242
:101BF00010BD10B5406A0021C185C184FFF71BFBF1
:101C000010BD01680C3151E8002F22F4907241E8B8
:101C10000023002BF5D10168143151E8002F22F088
:101C2000010241E80023002BF5D1016B012909D104
:101C300001680C3151E8002F22F0100241E8002326
:101C4000002BF5D1202180F842100021016370475C
:101C500008B590F84210222901D0022008BD826800
:101C60004FF480539A4201D1016921B1816A9A42AD
:101C70001BD04AB10AE00268816A5268C2F30802C6
:101C80000A80816A891C08E0026972B102685268A0
:101C900002F07F020A70816A491C8162C18D491E6F
:101CA0000904090CC18503D01BE002685268F1E702
:101CB0000168CA6822F02002CA600168CA6822F47A
:101CC0008072CA6001684A6922F001024A612021DB
:101CD00080F8421000214163026B012A03D0FFF714
:101CE0007FFC002008BD016301680C3151E8002F22
:101CF00022F0100241E80023002BF5D101680A68A8
:101D0000D20602D50A6849680091818DFFF792FAE0
:101D1000E7E7000070B5044600680169E26821F455
:101D20004051114301612169A0680843616908437A
:101D30002168CA6841F20C639A430243CA60206872
:101D40004169A26921F44071114341611E49206833
:101D5000884202D1FEF7ECFE01E0FEF7D9FE00EB6F
:101D6000C00101EB0012606864218000B2FBF0F357
:101D7000B3FBF1F36FF018067343B2FBF0F5B2FB5F
:101D8000F0F605EB8305322303EB0515B5FBF1F502
:101D9000B6FBF1F605F0F00505EB0615B2FBF0F623
:101DA000B2FBF0F0B0FBF1F06FF01802504306EB1D
:101DB000800003EB0010B0FBF1F0216800F00F0091
:101DC0002844886070BD0000003801400148FFF7DA
:101DD00033BA0000AC0000200148FFF72DBA000024
:101DE000F4000020FEE70907090E002804DB00F1DB
:101DF000E02080F80014704700F00F0000F1E020B0
:101E000080F8141D70470000FEF75CFDFFF750FEE0
:101E1000FFF752FDFFF7BAFDFFF7D8FDFFF70AFE07
:101E2000FFF724FE00F068F84FF400450F4C6E10E9
:101E30006714002102230EA2084600F0CDF82946BF
:101E40002046FEF799FBC820FEF794FA314620465B
:101E5000FEF792FBC820FEF78DFA39462046FEF7C2
:101E60008BFBC820FEF786FAE3E70000000C014078
:101E7000546573740000000001B584B0012104A80A
:101E800064228DE807000B46002278210248FEF705
:101E90004BFC05B000BD00001000002001B584B06F
:101EA000012104A864228DE807000B464022782116
:101EB0000248FEF739FC05B000BD0000100000200C
:101EC00070B506465FF0000404F1B000C0B2FFF741
:101ED000D3FF0020FFF7D0FF1020FFF7CDFF002534
:101EE0003046FFF7DBFF6D1CEDB2802DF8D3641C8C
:101EF000E4B2082CE8D370BD10B56420FEF73AFABE
:101F0000AE20FFF7B9FF2020FFF7B6FF1020FFF744
:101F1000B3FFB020FFF7B0FFC820FFF7ADFF0020F0
:101F2000FFF7AAFF1020FFF7A7FF4020FFF7A4FF4D
:101F30008120FFF7A1FFFF20FFF79EFFA120FFF701
:101F40009BFFA620FFF798FFA820FFF795FF3F20F3
:101F5000FFF792FFA420FFF78FFFD320FFF78CFF3E
:101F60000020FFF789FFD520FFF786FFF020FFF75D
:101F700083FFD920FFF780FF2220FFF77DFFDA20C3
:101F8000FFF77AFF1220FFF777FFDB20FFF774FFE0
:101F90002020FFF771FF8D20FFF76EFF1420FFF761
:101FA0006BFFAF20FFF768FFBDE810400020FFF790
:101FB00087BF10B50446B031C8B2FFF75DFF1020EF
:101FC00040EA1410FFF758FF04F00F00BDE810407E
:101FD00040F00100FFF750BF2DE9F0470025914682
:101FE0008A460446012B22D0DFF8BC80022B24D184
:101FF00055E02038C7B27E2C04D90AF10100002434
:1020000000F0FF0A51462046FFF7D3FF07EB4700D9
:10201000002608EB4007B85DFFF740FF761CF6B2DC
:10202000062EF8D3A41D6D1CE4B2EDB201E0DFF87A
:102030007C8019F805000028DBD1BDE8F087203846
:10204000C7B2782C04D90AF10100002400F0FF0A7D
:1020500051462046FFF7ADFF5FF0000606EB071183
:1020600018F80100FFF71AFF761CF6B2082EF5D318
:102070000AF10100C1B22046FFF79BFF5FF00006A6
:1020800006EB071101EB0800007AFFF707FF761C4B
:10209000F6B2082EF4D308346D1CE4B2EDB219F890
:1020A00005000028CBD1C8E702230008DA20000889
:1020B000010202030405060708090A0B0C0D0E0FA6
:1020C00010100000000000000000010203040607D9
:1020D00008090000000001020304000000000000E5
:1020E0000000002F000000000700070000147F140C
:1020F0007F1400242A7F2A1200626408132300360A
:102100004955225000000503000000001C22410038
:10211000000041221C000014083E08140008083E7C
:102120000808000000A06000000808080808000077
:1021300060600000002010080402003E5149453E46
:102140000000427F40000042615149460021414564
:102150004B31001814127F10002745454539003CCB
:102160004A49493000017109050300364949493699
:1021700000064949291E0000363600000000563688
:10218000000000081422410000141414141400006C
:102190004122140800020151090600324959513EFA
:1021A000007C1211127C007F49494936003E4141B2
:1021B0004122007F4141221C007F49494941007F63
:1021C00009090901003E4149497A007F0808087F52
:1021D0000000417F4100002040413F01007F081482
:1021E0002241007F40404040007F020C027F007F80
:1021F0000408107F003E4141413E007F0909090665
:10220000003E4151215E007F091929460046494997
:1022100049310001017F0101003F4040403F001F64
:102220002040201F003F4038403F006314081463E3
:1022300000070870080700615149454300007F41CD
:10224000410000552A552A55000041417F000004F5
:10225000020102040040404040400000010204002E
:10226000002054545478007F484444380038444493
:10227000442000384444487F00385454541800081F
:102280007E0901020018A4A4A47C007F080404783D
:102290000000447D4000004080847D00007F1028C5
:1022A00044000000417F4000007C04180478007C5A
:1022B0000804047800384444443800FC24242418DA
:1022C0000018242418FC007C080404080048545416
:1022D000542000043F444020003C4040207C001C2F
:1022E0002040201C003C4030403C00442810284442
:1022F000001CA0A0A07C004464544C44141414148A
:1023000014140000000000000000000000000000A5
:102310000000000000F80000000000000033300062
:10232000000000100C06100C060000000000000069
:10233000000040C07840C0784000043F04043F04DF
:102340000400007088FC08300000001820FF211EE7
:102350000000F008F000E018000000211C031E211E
:102360001E0000F00888700000001E212324192799
:10237000211010160E0000000000000000000000F8
:102380000000000000E01804020000000007182010
:10239000400000020418E000000000402018070080
:1023A0000000404080F0804040000202010F010226
:1023B0000200000000F0000000000101011F010107
:1023C0000100000000000000000080B0700000006C
:1023D00000000000000000000000000101010101F8
:1023E000010100000000000000000030300000008B
:1023F0000000000000008060180400601806010062
:10240000000000E010080810E000000F102020106D
:102410000F00001010F8000000000020203F2020D6
:10242000000000700808088870000030282422216D
:102430003000003008888848300000182020201123
:102440000E000000C02010F8000000070424243F04
:10245000240000F8088888080800001921202011AD
:102460000E0000E0108888180000000F11202011D5
:102470000E0000380808C83808000000003F0000BF
:1024800000000070880808887000001C22212122AA
:102490001C0000E010080810E000000031222211AA
:1024A0000F00000000C0C00000000000003030003D
:1024B00000000000008000000000000080600000BC
:1024C00000000000804020100800000102040810F5
:1024D0002000404040404040400004040404040404
:1024E00004000008102040800000002010080402B2
:1024F0000100007048080808F000000000303601B4
:102500000000C030C828E810E00007182724231472
:102510000B000000C038E0000000203C230202272E
:10252000382008F8888888700000203F202020117B
:102530000E00C030080808083800071820202010B6
:10254000080008F808080810E000203F20202010AC
:102550000F0008F88888E8081000203F202023207A
:10256000180008F88888E8081000203F20000300C1
:102570000000C03008080838000007182020221E7C
:10258000020008F808000008F808203F2101012196
:102590003F20000808F8080800000020203F202005
:1025A000000000000808F8080800C08080807F0054
:1025B000000008F888C028180800203F20012638AD
:1025C000200008F8080000000000203F2020202004
:1025D000300008F8F800F8F80800203F003F003FFE
:1025E000200008F830C00008F808203F2000071835
:1025F0003F00E01008080810E0000F102020201015
:102600000F0008F808080808F000203F2101010128
:102610000000E01008080810E0000F1824243850CB
:102620004F0008F8888888887000203F2000030C3D
:102630003020007088080808380000382021212246
:102640001C00180808F8080818000000203F2000A7
:10265000000008F808000008F808001F20202020CB
:102660001F000878880000C83808000007380E01ED
:102670000000F80800F80008F800033C0700073CD9
:102680000300081868808068180820302C03032C89
:1026900030200838C800C83808000000203F20005B
:1026A000000010080808C83808002038262120201B
:1026B0001800000000FE020202000000007F4040FF
:1026C0004000000C30C0000000000000000106388F
:1026D000C00000020202FE000000004040407F00F7
:1026E00000000000040202020400000000000000DC
:1026F00000000000000000000000808080808080DA
:1027000080800002020400000000000000000000C1
:102710000000000080808080000000192422222216
:102720003F2008F8008080000000003F11202011A9
:102730000E000000008080800000000E112020208C
:102740001100000000808088F800000E1120201089
:102750003F200000808080800000001F2222222273
:102760001300008080F0888888180020203F2020F7
:1027700000000000808080808000006B949494931F
:10278000600008F8008080800000203F21000020C9
:102790003F2000809898000000000020203F20206B
:1027A0000000000000809898000000C08080807FBA
:1027B000000008F8000080808000203F24022D30B7
:1027C0002000000808F8000000000020203F202022
:1027D00000008080808080808000203F20003F209B
:1027E000003F8080008080800000203F210000208A
:1027F0003F200000808080800000001F20202020DB
:102800001F00808000808000000080FFA120201138
:102810000E000000008080808000000E112020A0AB
:10282000FF80808080008080800020203F21200069
:102830000100000080808080800000332424242454
:102840001900008080E0808000000000001F202030
:1028500000008080000000808000001F20202010E9
:102860003F20808080000080808000010E300806BC
:10287000010080800080008080800F300C030C30CD
:102880000F0000808000808080000020312E0E31FB
:102890002000808080000080808080818E701806FB
:1028A000010000808080808080000021302C222167
:1028B000300000000000807C020200000000003FA9
:1028C000404000000000FF00000000000000FF008A
:1028D00000000002027C800000000040403F000039
:1028E00000000006010102020404000000000000D4
:1028F0000000000014290008000000201000000063
:10290000280100082429000810000020900700007A
:102910004401000801000000100000000000000059
:042920000024F4009B
:04000005080000ED02
:00000001FF
